:020000040800F2
:10000000A00500204901000823210008711F0008F5
:10001000212100086D050008AD2400080000000043
:100020000000000000000000000000002721000880
:10003000BF05000800000000252100082921000854
:100040006301000863010008630100086301000800
:1000500063010008630100086301000863010008F0
:1000600063010008630100086301000871050008CE
:100070007D05000889050008630100086301000888
:1000800063010008630100081D0400086301000803
:1000900063010008630100086301000863010008B0
:1000A00063010008630100086301000863010008A0
:1000B0006301000863010008630100086301000890
:1000C0006301000863010008630100086301000880
:1000D000630100086301000863010008A12400080F
:1000E0006301000863010008630100086301000860
:1000F0006301000863010008630100086301000850
:10010000630100086301000863010008630100083F
:10011000630100086301000863010008630100082F
:10012000630100086301000863010008630100081F
:10013000DFF810D000F060F90048004709270008F8
:10014000AFF30080A005002006488047064800471E
:10015000FEE7FEE7FEE7FEE7FEE7FEE7FEE7FEE777
:10016000FEE7FEE79F21000831010008D2B201E05E
:1001700000F8012B491EFBD270470022F6E710B5AC
:1001800013460A4604461946FFF7F0FF204610BD05
:10019000F0B480EA0102D40F4200B2EB410F02D268
:1001A0000246084611464A0042D0C30DDDB2C1F3F3
:1001B000C752AD1A202D35DAC1F3160141F4000201
:1001C00004B15242C5F1200602FA06F12A41104458
:1001D000B3EBD05F23D0C4B1012DA0EBC35009DC39
:1001E000F0BC4FF0004202EAC352DBB200F500005F
:1001F00000F0D3B8400000F1807000EBC350A0F1D4
:10020000807040EAD170490009E0490841EAC071B4
:10021000A0EBC35000F50000400800EBC350F0BC59
:1002200000F0B2B86142012202EB4101001BF6E787
:10023000F0BC704781F00041AAE780F00040A7E7DA
:1002400080EA010210B502F00043400022D04A00CB
:100250001FD0010E01EB1261C0F35600C2F356022B
:1002600040F4000042F40002A0FB022000047F39A9
:10027000140400D0401C50EA124001D44000491E32
:10028000C2B20C0604EBD010401C4008802A02D0F9
:1002900003E0002010BD20F00100002900DA00205A
:1002A000184310BD30B480EA010202F0004530F07E
:1002B000004221F0004013D090B1C30DD40DC2F321
:1002C0001601C0F31600E41A41F4000140F40002E4
:1002D0007D34914201D3641C00E04900002C02DA15
:1002E00030BC002070474FF400000023914201D33E
:1002F000891A034340084FEA4101F7D151B19142B5
:1003000002D14FF0004105E002D24FF0010101E0BF
:100310006FF0010103EBC450284430BC00F034B846
:1003200096230022114600F038B800F0004220F079
:100330000040C10DC0F3160040F400007F2901DA2F
:1003400000207047962903DCC1F19601C84001E006
:1003500096398840002AF4D04042704730B50B46A9
:10036000014600202022012409E021FA02F59D42E5
:1003700005D303FA02F5491B04FA02F52844151EB9
:10038000A2F10102F1DC30BD0029A8BF7047401C7A
:10039000490008BF20F00100704710B4B0FA80FC9B
:1003A00000FA0CF050EA010404BF10BC704749B1D8
:1003B000CCF1200421FA04F411FA0CF118BF012148
:1003C00021430843A3EB0C01CB1D4FEA00614FEA28
:1003D000102042BF002010BC704700EBC3501044F7
:1003E0000029A4BF10BC7047401C490008BF20F082
:1003F000010010BC70470000064C074D06E0E068A5
:1004000040F0010394E8070098471034AC42F6D35B
:10041000FFF792FE7828000898280008014800F0AD
:10042000C5B900001400002070B50446006881685A
:10043000C943C90717D1816821F00101816000F02B
:1004400019FF05460AE000BF00F014FF401B022818
:1004500004D920688068C043C00706D0206880683F
:10046000C043C007F0D0002070BDA06A40F010006B
:10047000A062E06A40F00100E062012070BD10B5AA
:100480000146406A826A12F0500F05D0006A026B82
:10049000BDE8104008461047816A41F4007181624E
:1004A00001688968C1F3424107290CD1017B51B928
:1004B000816A21F480718162816AC90403D4816AEE
:1004C00041F00101816200F069F910BD10B5406A88
:1004D000816A41F040018162C16A41F00401C16258
:1004E00000F063F910BD10B5406A00F05DF910BD71
:1004F000F8B500260446009600688168C943C9071C
:100500002DD0816841F001018160164816490068CC
:10051000B0FBF1F000E0401E00900028FBD100F09D
:10052000A9FE054616E000BF00F0A4FE401B02280D
:1005300010D920688068C043C0070BD0A06A40F083
:100540001000A062E06A40F00100E06284F82460DC
:100550000120F8BD20688068C043C007E4D10020B6
:10056000F8BD00000C00002040420F00FEE7000034
:10057000014800F0D7BB000044000020014800F013
:10058000D1BB00005C010020014800F0CBBB0000A3
:100590001801002030B590F840500124AC40C56BE4
:1005A0006C60046863604368102B036803D0996033
:1005B0000068C26030BD9A600068C16030BD70479D
:1005C00072B6FEE7F8B500250446009590F82400C1
:1005D00001280BD0012084F824002046FFF724FFD7
:1005E0002046FFF785FF060002D050E00220F8BD4C
:1005F000A06A20F4885040F00200A062022000F0BF
:10060000D7FE25490968B1FBF0F0400000E0401E2C
:1006100000900028FBD12068816841F008018160CA
:1006200000F028FE074608E000F024FEC01B0A2860
:1006300003D920688068000715D420688068000707
:10064000F2D42068816841F00401816000F012FE5C
:10065000074612E000F00EFEC01B0A280DD92068E4
:100660008068400709D5A06A20F0020040F0100021
:10067000A06284F824500120F8BD206880684007FB
:10068000E8D4A06A20F0020040F00100A06284F8E3
:1006900024503046F8BD00000C00002070470000D8
:1006A000F8B50024009490F824202546012A12D0A1
:1006B000012280F824204A681F23072A0DD20668E9
:1006C000776B521E02EB820293409F430B6893406C
:1006D0001F43776319E00220F8BD06680D2A0AD28D
:1006E000376BD21F02EB820293409F430B6893400B
:1006F0001F43376309E0F76A0D3A02EB8202934029
:100700009F430B6893401F43F7620A6807230668FC
:100710000A2A0AD3F7680A3A02EB420293409F433F
:100720008B6893401F43F76008E0376902EB420291
:1007300093409F438B6893401F4337610A68102A98
:1007400001D0112A20D1124B02689A4217D1936826
:100750001B0219D4936843F40003936009681029BD
:1007600012D10C490C4A0968B1FBF2F101EB81018D
:10077000490000E0491E00910029FBD104E0816A94
:1007800041F020018162012480F824502046F8BD08
:10079000002401400C00002040420F00014800F0FE
:1007A000DBB90000140000207047704770B50446A4
:1007B000006806684568A90625D5B10723D5A16A52
:1007C000C90603D4A16A41F40071A1628168C1F332
:1007D0004241072910D1217B71B9416821F02001E4
:1007E0004160A06A20F48070A062A06AC00403D4B3
:1007F000A06A40F00100A0622046FFF7CFFF216809
:100800006FF01200086028062ED570072CD5A06A5C
:10081000C00603D4A06A40F40050A062206881683A
:10082000C1F30231072909D04168490515D481680F
:10083000C1F34241072910D1217B71B9416821F0F0
:1008400080014160A06A20F48050A062A06AC005C7
:1008500003D4A06A40F00100A0622046FFF71EFF0B
:1008600021686FF00C00086068060CD5F0070AD00C
:10087000A06A40F48030A062204600F095F821681C
:100880006FF00100086070BD2DE9F04104004FF0E9
:1008900000057FD0A06A002628B9E66284F82460AB
:1008A000204600F083F82046FFF7BEFDA16AC90686
:1008B00000D420B1A06A40F01000A0626AE0A16AF2
:1008C00021F4885141F00201A162334923688B422F
:1008D000E16904D1B1F5402F01D14FF40021277B0C
:1008E0004FF4807C41EA470261680A43A168614590
:1008F00008D0012906D0002194F814E0BEF1010FC0
:1009000002D00AE06146F7E7C7B1A76A47F02007BF
:10091000A762E76A47F00107E7625F6827F4694763
:100920000F435F60236899681C4F394011439960F9
:10093000A16861450BD0012909D00CE0DFF860E027
:10094000A7690EEB47370F4347F40061E5E7218ABB
:100950000D05A5F580152168CB6A23F470032B43A0
:10096000CB62216889680F4B1940914208D1E66239
:10097000A16A21F0020141F00101A162BDE8F0810C
:10098000A06A20F0020040F01000A062E06A40F08F
:100990000100E0620120F1E7003C0140FDF7E1FFCA
:1009A00000E0FFFFFE0E1FFF7047000070B586B02D
:1009B00000250646009501950295039500681E499D
:1009C000884236D11D49886940F400708861886981
:1009D00000F400700490886940F004008861886920
:1009E000694600F004000490F32000900320019079
:1009F000134800F043FB144C1248C4E90005802062
:100A0000C4E90250400020618000C4E90505C0002F
:100A1000E061204600F0AAFA08B1FFF7D1FD346288
:100A2000002211461220666200F090FC122000F0B5
:100A30007FFC06B070BD00000024014000100240A1
:100A40000008014008000240440000202DE9F04762
:100A5000894604463B4900683B4F0E1D904688423C
:100A600001D0B84207D1306810F4702F03D00125AF
:100A70002846BDE8F08794F8240001280CD0012016
:100A800084F824002046FFF733FD05004FF00000F6
:100A900004D084F82400EBE70220EAE7A16A40F6DC
:100AA0000162914341F48071A1622168B94218D179
:100AB000326812F4702F14D0A16A41F48011A1623F
:100AC0003168490505D5A16A21F4005141F48051EE
:100AD000A162A16AC9040AD5E16A21F00601E162B6
:100AE00006E0A26A22F48012A2624968E9E7E062A5
:100AF00084F82400216A15488862216A1448C86273
:100B0000216A1448086321686FF0020008602068B9
:100B1000816841F480718160216843464A464C31C6
:100B2000206A00F061FA20688168C1F34241072918
:100B3000816803D041F48011816099E741F4A001FC
:100B4000FAE7000000240140002801407F0400086B
:100B5000E7040008CD04000810B5044690F824000E
:100B6000012807D0012084F824002046FFF75CFC10
:100B700010B113E0022010BD21688A6822F480724F
:100B80008A60216A91F82120022A07D1084600F0E4
:100B90000EF8A16A30B141F04001A162002184F851
:100BA000241010BD21F4885141F00101F5E710B582
:100BB00090F821100022022905D00421816380F8D9
:100BC0002020012010BD01680B6823F00E030B608C
:100BD00001680B6823F001030B6090F84030C46B90
:100BE000012101FA03F3636080F8211080F82020CE
:100BF000104610BD2DE9F05F90F821100024022965
:100C000003D004218163012485E001680A6822F091
:100C10000E020A6001680A6822F001020A603F4E73
:100C20003E4FB215DFF8F4C0DFF8F090DFF8ECA02B
:100C3000DFF8E8B0DFF8E4E00168783F130115025F
:100C4000ACF1640CA9F15009AAF13C0AABF1280BF4
:100C5000AEF1140E4FF48018B14227D9B9420ED02C
:100C6000614512D049451DD0514518D0594518D07D
:100C7000714501D1424615E0294EB14201D1012210
:100C800010E0274E1436B14201D110220AE0244E62
:100C90002836B14206D0224A3C32914201D11A464E
:100CA00000E02A461E49091F0A602BE0B94213D012
:100CB000614517D0494522D051451DD059451DD019
:100CC000714501D142461AE0B14202D14FF0807223
:100CD00015E0134EB14201D1012210E0104E14363E
:100CE000B14201D110220AE00D4E2836B14206D0A1
:100CF0000B4A3C32914201D11A4600E02A4607498C
:100D000080394A60012180F82110002180F82010EC
:100D1000416B01B188472046BDE8F09F800002404A
:100D2000080402402DE9F05FC16B0A6801680B6896
:100D3000046C4FF0040808FA04F8844D844E854F83
:100D4000DFF814C2DFF81492DFF814A2DFF814B24F
:100D5000DFF814E218EA020F65D05FEA437862D543
:100D60000A68920603D40A6822F004020A60DFF8D7
:100D7000F0814FF48062016808F114081301140235
:100D8000414524D9A9420DD0B1420FD0B9421AD061
:100D9000614515D0494515D0514501D1120312E0E6
:100DA000594501D104220EE0714501D140220AE0EB
:100DB0006D4D1435A94206D06B4A2832914201D1BB
:100DC0001A4600E022466749091F0A6029E0A94245
:100DD00013D0B14215D0B94220D061451BD049454E
:100DE0001BD0514502D14FF4800217E0414502D19A
:100DF0004FF0806212E0594501D104220EE07145A6
:100E000001D140220AE0584D1435A94206D0564A75
:100E10002832914201D11A4600E022464B49083956
:100E20004A60C16A71E04FF0020808FA04F818EA53
:100E3000020F70D05FEA83786DD50A68920606D4F7
:100E40000A6822F00A020A60012180F82110DFF806
:100E500010814FF40072016808F1140813011402A4
:100E6000414524D9A9420DD0B1420FD0B9421AD080
:100E7000614515D0494515D0514501D1120312E005
:100E8000594501D102220EE0714501D120220AE02C
:100E9000354D1435A94206D0334A2832914201D14A
:100EA0001A4600E022462F49091F0A6029E0A9429C
:100EB00013D0B14215D0B94220D061451BD049456D
:100EC0001BD0514502D14FF4001217E0414502D129
:100ED0004FF0007212E0594501D102220EE0714537
:100EE00001D120220AE0204D1435A94206D01E4A25
:100EF0002832914201D11A4600E0224613490839AE
:100F00004A60002180F82010816A00291CD0BDE8C9
:100F1000F05F0847FFE70825A540154214D01A07DF
:100F200012D50A6822F00E020A6090F84020C36BC6
:100F3000012101FA02F25A60816380F82110002138
:100F400080F82010016BE0E7BDE8F09F0800024048
:100F50001C000240300002404400024058000240A1
:100F60006C000240080402401C04024030B560B12D
:100F70001A4B026814219A4209D2194B1344B3FB4D
:100F8000F1F18900016417490AE0012030BD134BDB
:100F90005B421344B3FBF1F1890001640F49083946
:100FA000C163022180F82110136843F6F0718B436E
:100FB000F0E901142143D0E902452C43214304699F
:100FC000214344692143846921431943116000216D
:100FD0004163012242770177084630BD0804024090
:100FE000F8FFFDBF0000024070B5044690F82000F5
:100FF000002501280CD0012084F8200094F82160FD
:101000000020012E06D084F820000225284670BD5D
:10101000022070BD022684F82160A0632068066863
:1010200026F0010606602046FFF7B4FAE06A0028C1
:101030002068016802D041F00E0106E021F00401B1
:1010400001602068016841F00A01016020680168C0
:1010500041F001010160D9E770B5044600F00AF9DA
:101060000546601C02D004480078044400F002F9F0
:10107000401BA042FAD370BD000000202DE9F84FBC
:10108000DFF8C8910024A9F1040B23460F2709F1CA
:10109000040AABF1040ED1E00125A54006EA0502E1
:1010A000AA4276D1DFF8A8C14E68A6EB0C086645C7
:1010B0002BD00DDC032E34D005DC36B3012E19D035
:1010C000022E2FD11BE0112E16D0122E2AD119E09C
:1010D000B8F5881F19D006DCB8F5803F15D0B8F5F3
:1010E000801F1FD111E0B8F5001F0ED0B8F5041F06
:1010F00018D10AE0CB6815E0CB681B1D12E0CB6865
:1011000008330FE0CB680C330CE08B682BB1012B5C
:101110004FF0080303D0456104E0042302E00561B9
:1011200000E00023FF2A01D8064601E000F1040692
:101130004FEA840501D9A5F12005D6F8008007FA09
:1011400005FC28EA0C0803FA05F548EA0508C6F884
:1011500000804D68ED0070D53E4DAE6946F0010649
:10116000AE61AD6924F0030605F0010500953A4D26
:1011700006EB050CDCF80850A607360F07FA06F850
:1011800025EA0805DFF8D480404503D14FF0000878
:1011900025E052E0DFF8C880404502D14FF0010859
:1011A0001DE0DFF8C080404502D14FF0020816E094
:1011B000DFF8B480404502D14FF003080FE0DFF8BC
:1011C000AC80404502D14FF0040808E0DFF8A08071
:1011D000404502D14FF0050801E04FF0060808FA3B
:1011E00006F848EA0508CCF808804D68D9F8006090
:1011F000ED024D4601D5164300E096432E604D6842
:10120000DAF80060AD02554601D5164300E096437A
:101210002E604D68DBF80060AD035D4601D51643D6
:1012200000E096432E604D68DEF80060ED037546E1
:1012300001D5164300E096432E60641C0A681646EA
:10124000E2407FF429AFBDE8F88F000008040140B8
:101250000000111000100240000001400008014091
:10126000000C014000100140001401400018014032
:10127000001C014001488068704700000000002009
:1012800002488168027811448160704700000020A4
:10129000074810B5016841F010010160032000F01B
:1012A00075F80F2000F006F800F024F8002010BDBB
:1012B0000020024070B50D4D04464FF47A71287835
:1012C000B1FBF0F00A490968B1FBF0F000F0AEFBA9
:1012D00048B9102C07D200222146501E00F036F8E3
:1012E00000206C6070BD012070BD00000000002077
:1012F0000C0000200C4808B5816941F001018161B2
:10130000816901F001010091C16941F08051C16121
:10131000C06900F0805000900448416821F0E0610D
:1013200041F00071416008BD001002400000014022
:10133000002809DB00F01F020121914040098000D4
:1013400000F1E020C0F8001170470000F0B40E4B2F
:101350001B680C46C3F30223C3F10705042D00D913
:101360000425191D072901D2002300E0DB1E0126F8
:1013700006FA05F1491E214099409E40761E16400E
:101380003143F0BC01F0A4B80CED00E0064900F0D8
:10139000070208684FF6FF03184040EA0220034A9C
:1013A00010430860704700000CED00E00000FA05F3
:1013B00010B501460020284C04292FD00BDC012950
:1013C00030D0022929D100F06BF96168C1F3813175
:1013D000491C49001FE0082920D010291DD161684F
:1013E0002268D20119D51D48C1F38342C903805C2C
:1013F0000AD56168194AC1F34041921E515C184AEE
:10140000B2FBF1F1484301E01649484361684902E3
:1014100003D440000321B0FBF1F010BDBDE8104043
:1014200000F04EB9226AC2F30121012903D19207CB
:1014300001D5C80310BD022905D1626A920702D501
:1014400049F6404010BD0329FCD121688903F9D534
:101450004FF2244010BD0000001002405028000848
:1014600000127A0000093D002DE9F8430546007896
:10147000354CC00754D0E0690026C00008D4E069AC
:1014800040F08050E061E069012600F0805000905B
:101490002E480168C90512D40168804641F4807164
:1014A0000160FFF7E7FE074605E000BFFFF7E2FE39
:1014B000C01B642823D8D8F80000C005F6D5206AE0
:1014C00010F4407021D0A98801F4407181421CD0F1
:1014D000206A1F49012220F440700A6000220A603D
:1014E0002062C00711D0FFF7C5FE074641F28838D9
:1014F00008E000BFFFF7BEFEC11B414502D9032033
:10150000BDE8F883206A8007F4D5206A696820F472
:101510004070084320621EB1E06920F08050E06115
:101520002878800705D56068A96820F44040084302
:1015300060602878C00605D56068696920F480007D
:10154000084360600020DBE70010024000700040AC
:10155000400442422DE9F0470F46050061D0434E5A
:10156000306800F00700B84209D2306820F0070068
:1015700038433060306800F00700B84251D1286825
:101580003B4C810712D5400703D5606840F4E0600A
:1015900060602878000703D5606840F460506060A0
:1015A0006068A96820F0F000084360602878C007F0
:1015B00028D06868012810D02168022810D0890737
:1015C00000292EDA616821F0030101436160FFF711
:1015D00051FE804641F288390DE021688903EFE72A
:1015E0008901EDE7FFF746FEA0EB0801494502D966
:1015F0000320BDE8F0876068696800F00C00B0EB7C
:10160000810FEFD1306800F00700B8420BD9306885
:1016100020F0070038433060306800F00700B8421F
:1016200001D00120E5E72878400705D56068E96822
:1016300020F4E060084360602878000706D5606801
:10164000296920F4605040EAC100606000F038F879
:101650006168084AC1F30311515CC840064908603B
:1016600006480068FFF726FE0020C2E7002002407F
:1016700000100240602800080C0000200400002038
:101680000448054900684968044AC1F30221515CD5
:10169000C84070470C00002000100240702800086D
:1016A0000448054900684968044AC1F3C221515CF5
:1016B000C84070470C00002000100240702800084D
:1016C0000E4A51680E4801F00C03042B11D0082B70
:1016D0000FD10C48C1F38343C903C05C0AD55168DC
:1016E000084AC1F34041921E515C054A5043B0FB89
:1016F000F1F0704704494843704700000010024071
:1017000000127A003E28000800093D002DE9F84F3C
:10171000040070D02078C04DC00749D06868C0F37D
:101720008100012807D06868C0F38100022809D130
:101730006868C00306D52868800339D5606800282A
:10174000E7D035E06068B0F5803F0BD010B1B0F560
:10175000A02F11D0286820F480302860286820F459
:10176000802002E0286840F480302860606890B1F2
:10177000FFF780FD06460AE0286840F480202860D4
:10178000F0E700BFFFF776FD801B642873D8286858
:101790008003F7D50CE0FFF76DFD064605E000BFBE
:1017A000FFF768FD801B6428F0D828688003F7D411
:1017B00020789A4E80074FF001094FF0000839D584
:1017C000686810F00C0F07D06868C0F38100022829
:1017D00009D16868C00306D42868800714D5206939
:1017E000012808D110E02069B0B1C6F80090FFF7D9
:1017F00041FD074605E00AE1FFF73CFDC01B02285A
:10180000C4D828688007F7D52868616920F0F800F7
:1018100040EAC10028600DE0C6F80080FFF72AFD0D
:10182000074604E0FFF726FDC01B022823D82868DE
:101830008007F7D4207800072CD57948A169D9B161
:10184000C0F80090FFF716FD074604E0FFF712FD11
:10185000C01B02280FD8686A8007F7D571484FF47B
:10186000FA510068B0FBF1F0009000BF0098411EF3
:101870000091FAD20EE080E0C0F80080FFF7FAFC99
:10188000074604E0FFF7F6FCC01B022875D8686A1B
:101890008007F7D42078400760D5E8690027C000AA
:1018A00008D4E86940F08050E861E869012700F059
:1018B000805000905C480168C90513D401688346D4
:1018C00041F480710160FFF7D5FC824606E000BF5D
:1018D000FFF7D0FCA0EB0A0064284ED8DBF800002C
:1018E000C005F5D5E06801280AD008B1052813D055
:1018F000286A20F001002862286A20F0040002E033
:10190000286A40F001002862E06841F2883B98B103
:10191000FFF7B0FC82460BE0286A40F00400286222
:10192000EEE700BFFFF7A6FCA0EB0A0159455AD825
:10193000286A8007F6D50CE0FFF79CFC824605E09C
:10194000FFF798FCA0EB0A0159454CD8286A80079C
:10195000F6D41FB1E86920F08050E861E06988B3EF
:101960006968C1F38101022944D00228C6F8608069
:1019700004D0FFF77FFC044638E034E0FFF77AFC40
:10198000074604E0FFF776FCC01B02282BD8286826
:101990008001F7D4206AB0F5803F05D16868A1685E
:1019A00020F4003008436860D4E9080108436968FE
:1019B00021F4741108436860C6F86090FFF75AFC80
:1019C000044606E025E000BFFFF754FC001B022898
:1019D00009D828688001F7D51BE000BFFFF74AFC53
:1019E000001B022802D90320BDE8F88F2868800177
:1019F000F4D40EE00128F7D06868226A00F4803140
:101A0000914204D1616A00F47010884201D0012033
:101A1000EAE70020E8E70000001002400000424230
:101A2000800442420C0000200070004010B5401EAF
:101A3000B0F1807F01D3012010BD4FF0E024606140
:101A40000F21601700F044FD0020A06107202061F5
:101A5000002010BD70477047F8B50168044608685B
:101A6000CA684B6910F00F0F4FF0000559D003F012
:101A7000010602F49077374365D0C10705D0D10540
:101A800003D5616C41F001016164410705D5D907B7
:101A900003D0616C41F002016164810705D5D9076B
:101AA00003D0616C41F004016164010707D502F0C5
:101AB0002001314303D0616C41F008016164616C25
:101AC00000293AD0800604D5900602D5204600F0C1
:101AD000EFFB20684069616CC0F38010090700D4F7
:101AE00060B3204600F0AFFB20684069400621D576
:101AF0002068143050E8001F21F0400140E8001237
:101B0000002AF5D1E06BA8B16D494163E06BFFF7A6
:101B100071F8002811D0E06B416B01B0BDE8F040D6
:101B2000084783060FD593060DD52046BDE8F8403B
:101B300000F0BEBB2046FFF78EFFF8BD2046FFF742
:101B40008AFF6564F8BD266B2023012E7CD1C60672
:101B50007AD5D60678D508684868009048694FF06D
:101B60000206400640D5E16B086840680004000C9E
:101B7000E8D0A28D8242E5D9E085886920282DD061
:101B800020680C3050E8001F21F4807140E80012FA
:101B9000002AF5D12068143050E8001F21F001011F
:101BA00040E80012002AF5D12068143050E8001FE8
:101BB00021F0400140E80012002AF5D184F84230BB
:101BC000256320680C3050E8001F21F0100140E828
:101BD0000012002AF5D1E06BFEF7E9FF6663A08DE5
:101BE000E18D401A81B22AE0A08DE18D401A81B2C8
:101BF000E08D0028A6D00029A4D022680C3252E83B
:101C0000000F20F4907042E80007002FF5D1206803
:101C1000143050E8002F22F0010240E80027002F86
:101C2000F5D184F84230256320680C3050E8002F4D
:101C300022F0100240E80023002BF5D16663204615
:101C4000FFF708FFF8BDFFE705062BD5150629D5D8
:101C500094F841002128F5D1A068B0F5805F01D14A
:101C60002069B0B1206A411C216221680078486077
:101C7000E08C401E0004000CE084E3D12068C168C1
:101C800021F08001C1602068C16841F04001C1605D
:101C9000D8E7206A0088C0F308004860206A801CEA
:101CA0002062E5E74006CDD55006CBD5CA68204670
:101CB00022F04002CA6084F8413000F057F9C1E7D1
:101CC000A121000870B5040004D094F8410000255B
:101CD00010B106E0012070BD84F84050204600F0AD
:101CE00023F8242084F841002068C16821F40051C1
:101CF000C160204600F03EFB2068016921F490415C
:101D000001612068416921F02A0141612068C168B0
:101D100041F40051C1606564202084F8410084F8DA
:101D200042006563002070BDF0B585B000240094CA
:101D3000019402940394064603683E4F02203E49F4
:101D400003224502BB4221D18B6943F480438B615E
:101D50008B6903F4804304938B6943F004038B6124
:101D60008969364E01F0040104910102CDE90010A9
:101D7000039269463046FFF781F9CDE90054694680
:101D800030460294FFF77AF905B0F0BD2C4FBB4204
:101D9000FAD1CB6943F48023CB61CB6903F4802370
:101DA00004938B6943F008038B61896901F0080192
:101DB000CDE90321CDE90050224D69462846FFF7C1
:101DC0005DF9E814CDE90004694628460294FFF75E
:101DD00055F91E4D1C488027C5E90004C5E9024796
:101DE0002C616C61AC612846EC61FFF7BFF808B16B
:101DF000FEF7E6FBF5636E62144D13484435143864
:101E000001C5102091C5114845F8104944306C6156
:101E1000AC61EC61FFF7AAF808B1FEF7D1FBB5633E
:101E20000022114627206E62FFF790FA2720FFF765
:101E30007FFAA9E700380140001002400008014085
:101E400000480040000C0140300002401801002012
:101E500070472DE9F843044690F84100984616462D
:101E60000D46202802D00220BDE8F88385B17EB15E
:101E700000206064212084F84100FFF7FBF9A6846C
:101E80008146E684A0682027B0F5805F02D003E099
:101E90000120E9E7206910B12E4600250EE000265A
:101EA0000CE08021204600F0C1FAA8B9C6B116F8AE
:101EB000010B21684860E08C401EE084E08C4B46BA
:101EC0004FF00002CDF800800028EAD14FF0400129
:101ED000204600F0ABFA40B184F841700320C3E71C
:101EE00035F8020BC0F30800E3E784F841700020E6
:101EF000BAE7000070B5044690F84100202801D0F0
:101F0000022070BD49B342B32162A284E284002062
:101F10006064212384F84130A56B114BAB62A56B43
:101F2000104BEB62A56B104B2B63A36B58632568BA
:101F300013462A1DA06BFFF757F821686FF0400089
:101F400008602068143050E8001F41F0800140E82C
:101F50000012002AF5D1002070BD012070BD0000E4
:101F6000FB2100083D220008B1210008704770479E
:101F7000FEE70000FEB500242A4800940194284999
:101F8000029401608915816004730475062505615A
:101F90004FF460214460C161FEF776FC08B1FEF7A2
:101FA0000FFB0126CDE90046052469461D48029431
:101FB000FEF776FB08B1FEF703FB0220CDE90060D7
:101FC00069461848FEF76CFB08B1FEF7F9FA0426DB
:101FD0000320CDE9006069461248FEF761FB08B1B5
:101FE000FEF7EEFACDE9004669460E48FEF758FBCB
:101FF00008B1FEF7E5FACDE9005469460948FEF755
:102000004FFB08B1FEF7DCFA0720CDE90005694671
:102010000448FEF745FB002801D0FEF7D1FAFEBDCB
:102020000024014014000020114808B5416941F026
:10203000010141614069002200F001000090114659
:102040000B20FFF783F90B20FFF772F900221146EE
:102050000C20FFF77BF90C20FFF76AF900221146EC
:102060000D20FFF773F9BDE808400D20FFF760B9B8
:10207000001002400D4808B5816941F010018161EE
:10208000816901F010010091816941F004018161D1
:10209000816901F004010091816941F008018161C9
:1020A000806900F00800009008BD000000100240A8
:1020B0000C4810B50A4901604FF4E131416000213C
:1020C00081600C22C160C0E904128161C161FFF727
:1020D000F9FD002803D0BDE81040FEF771BA10BD2D
:1020E00000380140880000200C4810B50A49016002
:1020F0004FF4E1314160002181600C22C160C0E9F0
:1021000004128161C161FFF7DDFD002803D0BDE845
:102110001040FEF755BA10BD00480040D000002026
:10212000FEE7FEE770477047FFF7AAB830B595B0F5
:1021300028216846FEF721F814210AA8FEF71DF8A9
:1021400018210FA8FEF719F80121080400240491B2
:10215000CDE90010CDE908040294022507956846F0
:10216000FFF7D4FA08B172B6FEE70F20CDE90A05F1
:102170004FF48060CDE90C4000210AA80E94FFF7CF
:10218000E9F908B172B6FEE70FA80F951194FFF7B1
:102190006BF9002801D072B6FEE715B030BD70476C
:1021A00010B5406A0021C185C184FFF754FC10BD01
:1021B00070B5446A2068406994F84110C0F3C010BB
:1021C0000025212904D118B1E584204600F062F8E9
:1021D0002068406994F84210C0F38010222904D18D
:1021E00018B1E585204600F02EF8606C40F0100034
:1021F00060642046FFF72FFC70BD10B50146406AB1
:1022000009680968890616D40021C184016814315F
:1022100051E8002F22F0800241E80023002BF5D185
:1022200001680C3151E8002F42F0400241E80023E0
:10223000002BF5D110BDFFF799FE10BD10B5406A17
:10224000FFF795FE10BD01680C3151E8002F22F414
:10225000907241E80023002BF5D10168143151E858
:10226000002F22F0010241E80023002BF5D1016B81
:10227000012909D101680C3151E8002F22F0100228
:1022800041E80023002BF5D1202180F842100021E5
:102290000163704701680C3151E8002F22F0C00241
:1022A00041E80023002BF5D1202180F84110704730
:1022B00008B590F84210222901D0022008BD82689A
:1022C0004FF480539A4201D1016921B1816A9A4247
:1022D0001BD04AB10AE00268816A5268C2F3080260
:1022E0000A80816A891C08E0026972B1026852683A
:1022F00002F07F020A70816A491C8162C18D491E09
:102300000904090CC18503D01BE002685268F1E79B
:102310000168CA6822F02002CA600168CA6822F413
:102320008072CA6001684A6922F001024A61202174
:1023300080F8421000214163026B012A03D0FFF7AD
:1023400087FD002008BD016301680C3151E8002FB2
:1023500022F0100241E80023002BF5D101680A6841
:10236000D20602D50A6849680091818DFFF772FB99
:10237000E7E7000070B5044600680169E26821F4EF
:102380004051114301612169A06808436169084314
:102390002168CA6841F20C639A430243CA6020680C
:1023A0004169A26921F44071114341611E492068CD
:1023B000884202D1FFF774F901E0FFF761F900EB01
:1023C000C00101EB0012606864218000B2FBF0F3F1
:1023D000B3FBF1F36FF018067343B2FBF0F5B2FBF9
:1023E000F0F605EB8305322303EB0515B5FBF1F59C
:1023F000B6FBF1F605F0F00505EB0615B2FBF0F6BD
:10240000B2FBF0F0B0FBF1F06FF01802504306EBB6
:10241000800003EB0010B0FBF1F0216800F00F002A
:102420002844886070BD0000003801402DE9F84361
:10243000984617460D460446089E24E0701C22D09C
:10244000FEF718FFA0EB0800B0421AD8CEB1206802
:10245000C168490717D5802D15D0402D13D00168CC
:10246000C94309070FD40168002540680090204641
:10247000FFF7E9FE0820606484F840500120BDE8C1
:10248000F8830320FBE72068006835EA000004D0E9
:102490000020B842D2D00020F1E70120F9E7000087
:1024A0000148FFF7D9BA0000D0000020FEE7000085
:1024B0000FB4054B10B503A9044A029800F028F8A0
:1024C00010BC5DF814FB0000652600081000002019
:1024D0000907090E002804DB00F1E02080F8001451
:1024E000704700F00F0000F1E02080F8141D7047E5
:1024F00002E008C8121F08C1002AFAD170477047CD
:10250000002001E001C1121F002AFBD1704700002A
:102510002DE9FF4F89B09B460446002506E025289B
:102520000BD05A460B999047641C6D1C20780028EC
:10253000F5D10DB02846BDE8F08F0027B84601223E
:10254000474900E0074314F8013F203B02FA03F03B
:102550000842F7D120782E2819D114F8010F47F03E
:1025600004072A280ED06FF02F022078A0F1300146
:1025700009290CD808EB880102EB410100EB0108A6
:10258000641CF2E70A98641C50F8048B0A902078C7
:102590000028CED0642808D0692806D075281ED01F
:1025A0005A460B9990476D1C58E00A994FF00A095A
:1025B00001C90A91002802DA40422D2102E03905C2
:1025C00004D52B218DF82010012103E0F90704D058
:1025D0002021F7E78A4608AE0DE00021FAE70A99C4
:1025E0004FF00A0901C90A91F7E74946FDF7B6FE1F
:1025F000303106F8011D0028F7D1ADEB060000F1DF
:102600002009780701D44FF00108C84502DDA8EB86
:10261000090000E000208046002706E008A85A468E
:10262000C05D0B9990476D1C7F1C5745F6DB04E09D
:1026300030205A460B9990476D1CB8F10001A8F163
:102640000108F5DC05E016F8010B5A460B99904796
:102650006D1CB9F10001A9F10109F4DC641C65E706
:102660000928010013B54FF0FF33012269460248E3
:10267000FFF7EFFB00981CBD880000202DE9F04714
:102680008946DDE90868044601689A4617461046FF
:10269000FDF7D6FD054638466168FDF7D1FD3946A0
:1026A000FDF7CEFD3146FDF773FD07460146504666
:1026B000FDF7C6FD06465146FDF7C2FD4146FDF752
:1026C00067FD01463046FDF7EDFD064629465046BA
:1026D000FDF7B6FD4946FDF7B0FD3146FDF7B0FD0B
:1026E0002946FDF755FD0546206051463046FDF769
:1026F000A7FD4FF07E51FDF7A0FD3946FDF7A0FD87
:1027000060602846BDE8F08796B0FEF7C1FDFFF790
:102710000DFDFFF7AFFCFFF787FCFFF72BFCFFF782
:10272000C7FCFFF7E1FC3C48FDF74CFF062213A96C
:102730003948FEF78BF96420FEF78EFC0A208DF8ED
:102740003C00002513AF4FF07E5803AC04EBC506E8
:1027500037F81500FDF7E4FD30606D1C4046C6F803
:102760000480062DF2DBBB468246062213A92A48C6
:10277000FEF76CF93220FEF76FFCDFF8A080DFF87F
:10278000A09000255F46564637F81500FDF7C8FDB6
:10279000CDE90098014604EBC50032463346FFF709
:1027A0006DFF6D1C062DEFDB0D98FDF7BEFD81461C
:1027B0000B98FDF7BAFD80460998FDF7B6FD074670
:1027C0000798FDF7B2FD06460598FDF7AEFD0546F4
:1027D0000398FDF7AAFD8DE88003014633462A469B
:1027E00010A0FFF765FE00250DF13C0654F83500FA
:1027F000FDF79BFDADF8000006EB4500BDF80010AD
:102800006D1CA0F80110062DF0DB0D220FA90A485F
:10281000FFF770FBA9E7000014000020CDCCCC3DF1
:102820000AD7233C25642C25642C25642C25642C94
:1028300025642C25640A0000D00000200102020358
:102840000405060708090A0B0C0D0E0F10100102F3
:1028500002030405060708090A0B0C0D0E0F1010E1
:102860000000000000000000010203040607080940
:102870000000000001020304982800080000002066
:1028800014000000F0240008AC2800081400002008
:102890008C05000000250008010000001000000069
:0C28A0000000000000127A0000000000A0
:0400000508000131BD
:00000001FF
