:020000040800F2
:100000006005002005010008B31B0008011A000864
:10001000B11B000829050008631E0008000000004D
:10002000000000000000000000000000B71B0008F6
:100030006F05000800000000B51B0008B91B000890
:100040001F0100081F0100081F0100081F01000810
:100050001F0100081F0100081F0100081F01000800
:100060001F0100081F0100081F0100082D050008DE
:10007000390500081F0100081F0100081F010008C2
:100080001F0100081F010008D90300081F01000814
:100090001F0100081F0100081F0100081F010008C0
:1000A0001F0100081F0100081F0100081F010008B0
:1000B0001F0100081F0100081F0100081F010008A0
:1000C0001F0100081F0100081F0100081F01000890
:1000D0001F0100081F0100081F0100081F01000880
:1000E0001F0100081F0100081F010008DFF810D0E1
:1000F00000F060F900480047BD200008AFF3008021
:10010000600500200648804706480047FEE7FEE7F6
:10011000FEE7FEE7FEE7FEE7FEE7FEE7FEE7FEE7B7
:10012000351C0008ED000008D2B201E000F8012BF8
:10013000491EFBD270470022F6E710B513460A4667
:1001400004461946FFF7F0FF204610BDF0B480EAE0
:100150000102D40F4200B2EB410F02D20246084620
:1001600011464A0042D0C30DDDB2C1F3C752AD1AE9
:10017000202D35DAC1F3160141F4000204B15242D8
:10018000C5F1200602FA06F12A411044B3EBD05F14
:1001900023D0C4B1012DA0EBC35009DCF0BC4FF05B
:1001A000004202EAC352DBB200F5000000F0D3B80F
:1001B000400000F1807000EBC350A0F1807040EA75
:1001C000D170490009E0490841EAC071A0EBC35071
:1001D00000F50000400800EBC350F0BC00F0B2B8DE
:1001E0006142012202EB4101001BF6E7F0BC7047BF
:1001F00081F00041AAE780F00040A7E780EA010211
:1002000010B502F00043400022D04A001FD0010E7A
:1002100001EB1261C0F35600C2F3560240F4000035
:1002200042F40002A0FB022000047F39140400D035
:10023000401C50EA124001D44000491EC2B20C06D4
:1002400004EBD010401C4008802A02D003E00020BC
:1002500010BD20F00100002900DA0020184310BD75
:1002600030B480EA010202F0004530F0004221F093
:10027000004013D090B1C30DD40DC2F31601C0F3EA
:100280001600E41A41F4000140F400027D3491426A
:1002900001D3641C00E04900002C02DA30BC0020CD
:1002A00070474FF400000023914201D3891A0343A1
:1002B00040084FEA4101F7D151B1914202D14FF0CC
:1002C000004105E002D24FF0010101E06FF00101B1
:1002D00003EBC450284430BC00F034B8962300220D
:1002E000114600F038B800F0004220F00040C10D87
:1002F000C0F3160040F400007F2901DA00207047A7
:10030000962903DCC1F19601C84001E09639884086
:10031000002AF4D04042704730B50B460146002019
:100320002022012409E021FA02F59D4205D303FAB7
:1003300002F5491B04FA02F52844151EA2F1010238
:10034000F1DC30BD0029A8BF7047401C490008BF40
:1003500020F00100704710B4B0FA80FC00FA0CF0F5
:1003600050EA010404BF10BC704749B1CCF120042D
:1003700021FA04F411FA0CF118BF012121430843BA
:10038000A3EB0C01CB1D4FEA00614FEA102042BFE6
:10039000002010BC704700EBC35010440029A4BFDC
:1003A00010BC7047401C490008BF20F0010010BC81
:1003B00070470000064C074D06E0E06840F001037E
:1003C00094E8070098471034AC42F6D3FFF792FE4A
:1003D0002C2200084C220008014800F0BFB90000A0
:1003E0001400002070B5044600688168C943C9073D
:1003F00017D1816821F00101816000F0E1FD05461F
:100400000AE000BF00F0DCFD401B022804D9206890
:100410008068C043C00706D020688068C043C0071A
:10042000F0D0002070BDA06A40F01000A062E06A29
:1004300040F00100E062012070BD10B50146406A45
:10044000826A12F0500F05D0006A026BBDE81040BE
:1004500008461047816A41F4007181620168896829
:10046000C1F3424107290CD1017B51B9816A21F4C2
:1004700080718162816AC90403D4816A41F00101FB
:10048000816200F063F910BD10B5406A816A41F0E5
:1004900040018162C16A41F00401C16200F05DF96E
:1004A00010BD10B5406A00F057F910BDF8B5002630
:1004B0000446009600688168C943C9072DD0816849
:1004C00041F001018160164816490068B0FBF1F067
:1004D00000E0401E00900028FBD100F071FD0546B1
:1004E00016E000BF00F06CFD401B022810D9206808
:1004F0008068C043C0070BD0A06A40F01000A06223
:10050000E06A40F00100E06284F824600120F8BD58
:1005100020688068C043C007E4D10020F8BD000017
:100520000C00002040420F00FEE70000014800F0F0
:1005300035BB000044000020014800F02FBB000044
:100540001801002030B590F840500124AC40C56B34
:100550006C60046863604368102B036803D0996083
:100560000068C26030BD9A600068C16030BD7047ED
:1005700072B6FEE7F8B500250446009590F8240011
:1005800001280BD0012084F824002046FFF72AFF21
:100590002046FFF78BFF060002D050E00220F8BD96
:1005A000A06A20F4885040F00200A062022000F00F
:1005B000A5FD25490968B1FBF0F0400000E0401EB0
:1005C00000900028FBD12068816841F0080181601B
:1005D00000F0F6FC074608E000F0F2FCC01B0A2819
:1005E00003D920688068000715D420688068000758
:1005F000F2D42068816841F00401816000F0E0FCE1
:10060000074612E000F0DCFCC01B0A280DD9206868
:100610008068400709D5A06A20F0020040F0100071
:10062000A06284F824500120F8BD2068806840074B
:10063000E8D4A06A20F0020040F00100A06284F833
:1006400024503046F8BD00000C0000207047000028
:10065000F8B50024009490F824202546012A12D0F1
:10066000012280F824204A681F23072A0DD2066839
:10067000776B521E02EB820293409F430B689340BC
:100680001F43776319E00220F8BD06680D2A0AD2DD
:10069000376BD21F02EB820293409F430B6893405B
:1006A0001F43376309E0F76A0D3A02EB8202934079
:1006B0009F430B6893401F43F7620A68072306684D
:1006C0000A2A0AD3F7680A3A02EB420293409F4390
:1006D0008B6893401F43F76008E0376902EB4202E2
:1006E00093409F438B6893401F4337610A68102AE9
:1006F00001D0112A20D1124B02689A4217D1936877
:100700001B0219D4936843F400039360096810290D
:1007100012D10C490C4A0968B1FBF2F101EB8101DD
:10072000490000E0491E00910029FBD104E0816AE4
:1007300041F020018162012480F824502046F8BD58
:10074000002401400C00002040420F00014800F04E
:10075000D7B90000140000207047704770B50446F8
:10076000006806684568A90625D5B10723D5A16AA2
:10077000C90603D4A16A41F40071A1628168C1F382
:100780004241072910D1217B71B9416821F0200134
:100790004160A06A20F48070A062A06AC00403D403
:1007A000A06A40F00100A0622046FFF7CFFF216859
:1007B0006FF01200086028062ED570072CD5A06AAD
:1007C000C00603D4A06A40F40050A062206881688B
:1007D000C1F30231072909D04168490515D4816860
:1007E000C1F34241072910D1217B71B9416821F041
:1007F00080014160A06A20F48050A062A06AC00518
:1008000003D4A06A40F00100A0622046FFF71EFF5B
:1008100021686FF00C00086068060CD5F0070AD05C
:10082000A06A40F48030A062204600F093F821686E
:100830006FF00100086070BD2DE9F0414FF0000736
:1008400004003D467ED0A06A002628B9E66284F8FE
:100850002460204600F080F82046FFF7C3FDA16A1F
:10086000C90600D420B1A06A40F01000A06269E07F
:10087000A16A21F4885141F00201A1626268E16934
:10088000237B0A4347EA43010A43A1684FF4807778
:10089000B94209D0012907D05FF0000194F814C0D3
:1008A000BCF1010F02D00AE03946F7E7F3B1A36AC1
:1008B00043F02003A362E36A43F00103E362236889
:1008C000D3F804C02CF4694C4CEA010CC3F804C002
:1008D00021688B68DFF870C003EA0C0313438B6058
:1008E000A168B9420BD0012909D00CE0DFF85CC047
:1008F000A3690CEB43330B4343F40061DFE7218A28
:100900000D05A5F580152168CB6A23F470032B43F0
:10091000CB62216889680E4B1940914208D1E6628A
:10092000A16A21F0020141F00101A162BDE8F0815C
:10093000A06A20F0020040F01000A062E06A40F0DF
:100940000100E0620120F1E7FDF7E1FF00E0FFFFB9
:10095000FE0E1FFF7047000070B586B000250646EA
:10096000009501950295039500681D49884235D18F
:100970001C49886940F400708861886900F400703F
:100980000490886940F0040088618869694600F035
:10099000040004907F20009003200190124800F092
:1009A0001FFA134C1148C4E900058020C4E9025025
:1009B000400020618000C4E905052046E56100F0A3
:1009C00097F908B1FFF7D4FD3462002211461220D6
:1009D000666200F061FB122000F050FB06B070BDB3
:1009E00000240140001002400008014008000240BD
:1009F000440000202DE9F047894604463B49006841
:100A00003B4F0E1D9046884201D0B84207D1306856
:100A100010F4702F03D001252846BDE8F08794F824
:100A2000240001280CD0012084F824002046FFF780
:100A30003DFD05004FF0000004D084F82400EBE7F2
:100A40000220EAE7A16A40F60162914341F4807115
:100A5000A1622168B94218D1326812F4702F14D003
:100A6000A16A41F48011A1623168490505D5A16AE6
:100A700021F4005141F48051A162A16AC9040AD550
:100A8000E16A21F00601E16206E0A26A22F4801226
:100A9000A2624968E9E7E06284F82400216A154807
:100AA0008862216A1448C862216A14480863216870
:100AB0006FF0020008602068816841F480718160F5
:100AC000216843464A464C31206A00F03FF92068CD
:100AD0008168C1F342410729816803D041F4801144
:100AE000816099E741F4A001FAE700000024014089
:100AF000002801403B040008A30400088904000802
:100B000010B5044690F82400012807D0012084F88D
:100B100024002046FFF766FC10B113E0022010BD50
:100B200021688A6822F480728A60216A91F8212003
:100B3000022A07D1084600F00EF8A16A30B141F050
:100B40004001A162002184F8241010BD21F48851D5
:100B500041F00101F5E710B590F8211000220229BB
:100B600005D00421816380F82020012010BD016898
:100B70000B6823F00E030B6001680B6823F0010380
:100B80000B6090F84030C46B012101FA03F36360FD
:100B900080F8211080F82020104610BD2DE9F05F6C
:100BA000C16B0C6801680B68D0F840C0042202FADF
:100BB0000CF2494DDFF824A1494E4A4FDFF828B125
:100BC000DFF828E122422CD05A072AD50A6892067B
:100BD00003D40A6822F004020A600168A94201D124
:100BE000042219E0514501D1402215E0B14202D161
:100BF0004FF4806210E0B94202D14FF480420BE022
:100C0000594502D14FF4802206E0714502D14FF4DC
:100C1000800201E04FF080622F4908394A60C16AC2
:100C20003BE04FF0020808FA0CF818EA040F4FF006
:100C300000094FF0010235D05FEA837832D50B68A6
:100C40009B0605D40B6823F00A030B6080F8212073
:100C50000168A94201D1022219E0514501D12022A7
:100C600015E0B14202D14FF4007210E0B94202D156
:100C70004FF400520BE0594502D14FF4003206E028
:100C8000714502D14FF4001201E04FF00072124999
:100C900008394A6080F82090816A00291AD0BDE89E
:100CA000F05F0847082505FA0CF5254212D01B070E
:100CB00010D50B6823F00E030B6090F84010C36B47
:100CC00002FA01F15960826380F8212080F82090B7
:100CD000016BE2E7BDE8F09F080002401C00024003
:100CE0003000024044000240580002406C000240C4
:100CF00030B528B308C8134914221944B1FBF2F1E6
:100D00008900C16310498163022141771A6843F663
:100D1000F0718A43D0E900142143D0E902452C4305
:100D200021430469214344692143846921431143D8
:100D3000196000214163012242770177084630BDE6
:100D4000012030BDF8FFFDBF0000024070B5044631
:100D500090F82000002501280CD0012084F8200004
:100D600094F821600020012E06D084F8200002258E
:100D7000284670BD022070BD022684F82160A06361
:100D80002068066826F0010606602046FFF7DAFBB9
:100D9000E06A00282068016802D041F00E0106E0F8
:100DA00021F0040101602068016841F00A0101603E
:100DB0002068016841F001010160D9E770B504467F
:100DC00000F0FEF80546601C02D004480078044498
:100DD00000F0F6F8401BA042FAD370BD00000020DE
:100DE0002DE9F84FDFF8B8910024A9F1040B234650
:100DF0000F2709F1040AABF1040EC9E00125A54053
:100E00002A40AA427DD1674ED1F804C0ACEB060857
:100E1000B44532D014DCBCF1030F3AD009DCBCF18C
:100E2000000F2AD0BCF1010F1CD0BCF1020F31D150
:100E30001DE0BCF1110F17D0BCF1120F2AD119E03F
:100E4000B8F5881F19D006DCB8F5803F15D0B8F585
:100E5000801F1FD111E0B8F5001F0ED0B8F5041F98
:100E600018D10AE0CB6815E0CB681B1D12E0CB68F7
:100E700008330FE0CB680C330CE08B682BB1012BEF
:100E80004FF0080303D0456104E0042302E005614C
:100E900000E00023FF2A01D8064601E000F1040625
:100EA0004FEA840501D9A5F12005D6F8008007FA9C
:100EB00005FC28EA0C0803FA05F548EA0508C6F817
:100EC00000804D68ED0062D5374DAE6946F00106F1
:100ED000AE61AD6924F0030605F001050095334DC0
:100EE00006EB050CDCF80850A607360F07FA06F8E3
:100EF00025EA0805DFF8B880404503D14FF0000827
:100F000017E044E0DFF8AC80404502D14FF0010823
:100F10000FE0DFF8A480404502D14FF0020808E05E
:100F2000DFF89880404502D14FF0030801E04FF010
:100F3000040808FA06F848EA0508CCF808804D6865
:100F4000D9F80060ED024D4601D5164300E0964306
:100F50002E604D68DAF80060AD02554601D51643A3
:100F600000E096432E604D68DBF80060AD035D46FF
:100F700001D5164300E096432E604D68DEF8006010
:100F8000ED03754601D5164300E096432E60641CC0
:100F90000D682A46E5407FF431AFBDE8F88F0000C8
:100FA0000804014000001110001002400000014040
:100FB00000080140000C01400010014000140140F5
:100FC00001488068704700000000002002488168E6
:100FD000027811448160704700000020074810B576
:100FE000016841F010010160032000F075F80F2046
:100FF00000F006F800F024F8002010BD00200240A8
:1010000070B50D4D04464FF47A712878B1FBF0F0BD
:101010000A490968B1FBF0F000F0A4FB48B9102CB4
:1010200007D200222146501E00F036F800206C60E6
:1010300070BD012070BD0000000000200C000020E9
:101040000C4808B5816941F001018161816901F0B5
:1010500001010091C16941F08051C161C06900F096
:10106000805000900448416821F0E06141F0007137
:10107000416008BD0010024000000140002809DB6B
:1010800000F01F02012191404009800000F1E020A2
:10109000C0F8001170470000F0B40E4B1B680C46FE
:1010A000C3F30223C3F10705042D00D90425191D3C
:1010B000072901D2002300E0DB1E012606FA05F114
:1010C000491E214099409E40761E16403143F0BC97
:1010D00000F0D8BE0CED00E0064900F007020868F9
:1010E0004FF6FF03184040EA0220034A104308600D
:1010F000704700000CED00E00000FA0510B5014655
:101100000020234C012922D0022939D010291DD1D9
:1011100061682268D20119D51E48C1F38342C90310
:10112000805C0AD561681B4AC1F34041921E515C44
:10113000194AB2FBF1F1484301E01849484361689C
:10114000490203D440000321B0FBF1F010BD226A34
:10115000C2F30121012903D1920701D5C80310BDB3
:10116000022905D1626A920702D549F6404010BDB6
:101170000329FCD121688903F9D54FF2244010BD21
:1011800000F02AF96168C1F38131491C4900DBE7AD
:10119000001002400422000800127A0000093D00FD
:1011A0002DE9F84305460078354CC00754D0E06976
:1011B0000026C00008D4E06940F08050E061E0699A
:1011C000012600F0805000902E480168C90512D415
:1011D0000168804641F480710160FFF7F1FE074627
:1011E00005E000BFFFF7ECFEC01B642823D8D8F849
:1011F0000000C005F6D5206A10F4407021D0A988FF
:1012000001F4407181421CD0206A1F49012220F460
:1012100040700A6000220A602062C00711D0FFF708
:10122000CFFE074641F2883808E000BFFFF7C8FE4E
:10123000C11B414502D90320BDE8F883206A80071D
:10124000F4D5206A696820F44070084320621EB11A
:10125000E06920F08050E0612878800705D560685B
:10126000A96820F44040084360602878C00605D58E
:101270006068E96820F48000084360600020DBE7D4
:101280000010024000700040400442422DE9F04747
:101290000F46050061D0434E306800F00700B842A9
:1012A00009D2306820F0070038433060306800F021
:1012B0000700B84251D128683B4C810712D540073E
:1012C00003D5606840F4E06060602878000703D5CB
:1012D000606840F4605060606068A96820F0F000C9
:1012E000084360602878C00728D06868012810D0BB
:1012F0002168022810D0890700292EDA616821F0C0
:10130000030101436160FFF75BFE804641F28839CB
:101310000DE021688903EFE78901EDE7FFF750FE53
:10132000A0EB0801494502D90320BDE8F0876068B9
:10133000696800F00C00B0EB810FEFD1306800F06D
:101340000700B8420BD9306820F0070038433060FE
:10135000306800F00700B84201D00120E5E72878A6
:10136000400705D56068E96820F4E06008436060E4
:101370002878000706D56068296920F4605040EAA3
:10138000C100606000F038F86168084AC1F30311D9
:10139000515CC8400649086006480068FFF730FE07
:1013A0000020C2E700200240001002401422000882
:1013B0000C0000200400002004480549006849682A
:1013C000044AC1F30221515CC84070470C00002060
:1013D00000100240242200080448054900684968BA
:1013E000044AC1F3C221515CC84070470C00002080
:1013F00000100240242200080E4A51680E4801F0F5
:101400000C03042B11D0082B0FD10C48C1F38343DC
:10141000C903C05C0AD55168084AC1F34041921E15
:10142000515C054A5043B0FBF1F070470449484312
:10143000704700000010024000127A00F2210008FC
:1014400000093D002DE9F84F040070D02078C04D10
:10145000C00749D06868C0F38100012807D06868D8
:10146000C0F38100022809D16868C00306D5286846
:10147000800339D560680028E7D035E06068B0F5B2
:10148000803F0BD010B1B0F5A02F11D0286820F408
:1014900080302860286820F4802002E0286840F42A
:1014A00080302860606890B1FFF78AFD06460AE048
:1014B000286840F480202860F0E700BFFFF780FD37
:1014C000801B642873D828688003F7D50CE0FFF7E9
:1014D00077FD064605E000BFFFF772FD801B64281C
:1014E000F0D828688003F7D420789A4E80074FF010
:1014F00001094FF0000839D5686810F00C0F07D0CB
:101500006868C0F38100022809D16868C00306D466
:101510002868800714D52069012808D110E02069C7
:10152000B0B1C6F80090FFF74BFD074605E00AE1B1
:10153000FFF746FDC01B0228C4D828688007F7D5EE
:101540002868616920F0F80040EAC10028600DE0D9
:10155000C6F80080FFF734FD074604E0FFF730FDD2
:10156000C01B022823D828688007F7D420780007FA
:101570002CD57948A169D9B1C0F80090FFF720FDBA
:10158000074604E0FFF71CFDC01B02280FD8686A5D
:101590008007F7D571484FF4FA510068B0FBF1F0BD
:1015A000009000BF0098411E0091FAD20EE080E04A
:1015B000C0F80080FFF704FD074604E0FFF700FDD8
:1015C000C01B022875D8686A8007F7D420784007C6
:1015D00060D5E8690027C00008D4E86940F0805071
:1015E000E861E869012700F0805000905C480168DC
:1015F000C90513D40168834641F480710160FFF787
:10160000DFFC824606E000BFFFF7DAFCA0EB0A0031
:1016100064284ED8DBF80000C005F5D5E068012845
:101620000AD008B1052813D0286A20F001002862EA
:10163000286A20F0040002E0286A40F001002862D5
:10164000E06841F2883B98B1FFF7BAFC82460BE0B4
:10165000286A40F004002862EEE700BFFFF7B0FC04
:10166000A0EB0A0159455AD8286A8007F6D50CE044
:10167000FFF7A6FC824605E0FFF7A2FCA0EB0A01FB
:1016800059454CD8286A8007F6D41FB1E86920F084
:101690008050E861E06988B36968C1F3810102297B
:1016A00044D00228C6F8608004D0FFF789FC0446C5
:1016B00038E034E0FFF784FC074604E0FFF780FCE5
:1016C000C01B02282BD828688001F7D4206AB0F507
:1016D000803F05D16868A16820F400300843686045
:1016E000D4E908010843696821F47411084368606B
:1016F000C6F86090FFF764FC044606E025E000BFF2
:10170000FFF75EFC001B022809D828688001F7D586
:101710001BE000BFFFF754FC001B022802D9032086
:10172000BDE8F88F28688001F4D40EE00128F7D0D6
:101730006868226A00F48031914204D1616A00F441
:101740007010884201D00120EAE70020E8E700009D
:101750000010024000004242800442420C0000207F
:101760000070004010B5401EB0F1807F01D3012011
:1017700010BD4FF0E02460610F21601700F082FB84
:101780000020A06107202061002010BD704770B5C7
:10179000040004D094F84100002510B106E00120B7
:1017A00070BD84F84050204600F024F8242084F8CE
:1017B00041002068C16821F40051C160204600F05A
:1017C000BBFA2068016921F49041016120684169F8
:1017D00021F02A0141612068C16841F40051C160D3
:1017E0006564202084F8410084F84200656300208D
:1017F00070BD0000F0B585B00024009401940294FF
:10180000039406460368304F022030490322450204
:10181000BB4221D18B6943F480438B618B6903F414
:10182000804304938B6943F004038B618969284EDC
:1018300001F0040104910102CDE900100392694610
:101840003046FFF7CDFACDE90054694630460294A0
:10185000FFF7C6FA05B0F0BD1E4FBB42FAD1CB6907
:1018600043F48023CB61CB6903F4802304938B6919
:1018700043F008038B61896901F00801CDE9032178
:10188000CDE90050144D69462846FFF7A9FAE8143F
:10189000CDE90004694628460294FFF7A1FA104DED
:1018A0000E4828601020C5E901048020C5E9030422
:1018B0006C61AC612846EC61FFF71AFA08B1FEF7DB
:1018C00057FEB5636E62C5E7003801400010024064
:1018D0000008014000480040000C01401C0002408C
:1018E000180100202DE9F843044690F8410098467D
:1018F00016460D46202802D00220BDE8F88385B1A7
:101900007EB100206064212084F84100FFF758FB7D
:10191000A6848146E684A0682027B0F5805F02D0C7
:1019200003E00120E9E7206910B12E4600250EE012
:1019300000260CE08021204600F05AFAA8B9C6B172
:1019400016F8010B21684860E08C401EE084E08CB2
:101950004B464FF00002CDF800800028EAD14FF04E
:101960004001204600F044FA40B184F84170032061
:10197000C3E735F8020BC0F30800E3E784F84170D1
:101980000020BAE770B5044690F84100202801D045
:10199000022070BD49B342B32162A284E2840020D8
:1019A0006064212384F84130A56B114BAB62A56BB9
:1019B000104BEB62A56B104B2B63A36B5863256830
:1019C00013462A1DA06BFFF7C1F921686FF0400094
:1019D00008602068143050E8001F41F0800140E8A2
:1019E0000012002AF5D1002070BD012070BD00005A
:1019F000811C0008C31C0008371C00087047704792
:101A0000FEE700003EB500242A48009401942849CE
:101A100002940160891581600473047506250561CF
:101A20004FF460214460C161FEF706FF08B1FEF784
:101A30009FFD01200090CDE9010469461D48FEF795
:101A400007FE08B1FEF794FD022000900190694660
:101A50001848FEF7FDFD08B1FEF78AFD032000904F
:101A6000019069461348FEF7F3FD08B1FEF780FDCB
:101A700004200090019069460E48FEF7E9FD08B188
:101A8000FEF776FD05200090019069460948FEF7B3
:101A9000DFFD08B1FEF76CFD00956946054801952C
:101AA000FEF7D6FD002801D0FEF762FD3EBD000026
:101AB00000240140140000200D4808B5416941F0A0
:101AC000010141614069002200F0010000901146CF
:101AD0000B20FFF7E1FA0B20FFF7D0FA00221146A6
:101AE0000C20FFF7D9FABDE808400C20FFF7C6BA72
:101AF00000100240114808B5816941F01001816170
:101B0000816901F010010091816941F0200181613A
:101B1000816901F020010091816941F00401816136
:101B2000816901F004010091816941F0080181613E
:101B3000806900F00800009008BD0000001002401D
:101B40000C4810B50A4901604FF4E13141600021B1
:101B500081600C22C160C0E904128161C161FFF79C
:101B600016FE002803D0BDE81040FEF701BD10BDF1
:101B700000380140880000200C4810B50A49016077
:101B80004FF4E1314160002181600C22C160C0E965
:101B900004128161C161FFF7FAFD002803D0BDE89E
:101BA0001040FEF7E5BC10BD00480040D00000200A
:101BB000FEE7FEE770477047FFF708BA30B593B00D
:101BC00028216846FEF7B7FA14210AA8FEF7B3FAEF
:101BD000002501200F9510951195010412958DE8AF
:101BE000230004904FF4E010CDE90810022407947C
:101BF0006846FFF727FC08B172B6FEE70AA90F2076
:101C000081E831004FF48060CDE90D0502210AA87A
:101C1000FFF73CFB08B172B6FEE74FF400401190AD
:101C20000F940FA8FFF7BCFA002801D072B6FEE7A8
:101C300013B030BD704770B5446A2068406994F8AD
:101C40004110C0F3C0100025212904D118B1E5844A
:101C5000204600F062F82068406994F84210C0F312
:101C60008010222904D118B1E585204600F02EF815
:101C7000606C40F0100060642046FFF787FD70BD87
:101C800010B50146406A09680968890616D4002122
:101C9000C1840168143151E8002F22F0800241E82C
:101CA0000023002BF5D101680C3151E8002F42F0E0
:101CB000400241E80023002BF5D110BDFFF79EFE46
:101CC00010BD10B5406AFFF79AFE10BD01680C31D7
:101CD00051E8002F22F4907241E80023002BF5D147
:101CE0000168143151E8002F22F0010241E800237D
:101CF000002BF5D1016B012909D101680C3151E8A4
:101D0000002F22F0100241E80023002BF5D1202102
:101D100080F8421000210163704701680C3151E8DE
:101D2000002F22F0C00241E80023002BF5D1202132
:101D300080F841107047000070B5044600680169E2
:101D4000E26821F44051114301612169A068084310
:101D5000616908432168CA6841F20C639A430243EF
:101D6000CA6020684169A26921F440711143416150
:101D70001E492068884202D1FFF72EFB01E0FFF7E1
:101D80001BFB00EBC00101EB0012606864218000C6
:101D9000B2FBF0F3B3FBF1F36FF018067343B2FB41
:101DA000F0F5B2FBF0F605EB8305322303EB0515E6
:101DB000B5FBF1F5B6FBF1F605F0F00505EB061500
:101DC000B2FBF0F6B2FBF0F0B0FBF1F06FF01802EE
:101DD000504306EB800003EB0010B0FBF1F02168EC
:101DE00000F00F002844886070BD000000380140FA
:101DF0002DE9F843984617460D460446089E24E010
:101E0000701C22D0FFF7DCF8A0EB0800B0421AD813
:101E1000CEB12068C168490717D5802D15D0402D57
:101E200013D00168C94309070FD401680025406831
:101E300000902046FFF74AFF0820606484F8405075
:101E40000120BDE8F8830320FBE72068006835EA3D
:101E5000000004D00020B842D2D00020F1E70120D9
:101E6000F9E7FEE70FB4054B10B503A9044A029841
:101E700000F028F810BC5DF814FB000019200008E1
:101E8000100000200907090E002804DB00F1E02003
:101E900080F80014704700F00F0000F1E02080F897
:101EA000141D704702E008C8121F08C1002AFAD1A9
:101EB00070477047002001E001C1121F002AFBD1CA
:101EC000704700002DE9FF4F89B09B46044600256E
:101ED00006E025280BD05A460B999047641C6D1CD0
:101EE00020780028F5D10DB02846BDE8F08F0027F6
:101EF000B8460122474900E0074314F8013F203B60
:101F000002FA03F00842F7D120782E2819D114F8EC
:101F1000010F47F004072A280ED06FF02F02207817
:101F2000A0F1300109290CD808EB880102EB41012E
:101F300000EB0108641CF2E70A98641C50F8048B5B
:101F40000A9020780028CED0642808D0692806D0CE
:101F500075281ED05A460B9990476D1C58E00A9977
:101F60004FF00A0901C90A91002802DA40422D21E6
:101F700002E0390504D52B218DF82010012103E062
:101F8000F90704D02021F7E78A4608AE0DE00021CA
:101F9000FAE70A994FF00A0901C90A91F7E7494699
:101FA000FEF7BAF9303106F8011D0028F7D1ADEB84
:101FB000060000F12009780701D44FF00108C84558
:101FC00002DDA8EB090000E000208046002706E0C3
:101FD00008A85A46C05D0B9990476D1C7F1C574559
:101FE000F6DB04E030205A460B9990476D1CB8F19F
:101FF0000001A8F10108F5DC05E016F8010B5A46CE
:102000000B9990476D1CB9F10001A9F10109F4DCAD
:10201000641C65E70928010013B54FF0FF33012266
:1020200069460248FFF75EFC00981CBD880000204E
:102030002DE9F0478946DDE90868044601689A46BB
:1020400017461046FEF7DAF8054638466168FEF78F
:10205000D5F83946FEF7D2F83146FEF777F807464D
:1020600001465046FEF7CAF806465146FEF7C6F846
:102070004146FEF76BF801463046FEF7F1F806469A
:1020800029465046FEF7BAF84946FEF7B4F83146FD
:10209000FEF7B4F82946FEF759F805462060514688
:1020A0003046FEF7ABF84FF07E51FEF7A4F8394604
:1020B000FEF7A4F860602846BDE8F08796B0FEF70A
:1020C0008DFFFFF77BFDFFF715FDFFF7F5FCFFF731
:1020D00037FDFFF797FCFFF74FFD3C48FEF74AFA44
:1020E000062213A93948FEF785FC6420FEF766FE38
:1020F0000A208DF83C00002513AF4FF07E5803AC4A
:1021000004EBC50637F81500FEF7E8F830606D1CE3
:102110004046C6F80480062DF2DBBB468246062206
:1021200013A92A48FEF766FC3220FEF747FEDFF8C7
:10213000A080DFF8A09000255F46564637F81500CE
:10214000FEF7CCF8CDE90098014604EBC500324615
:102150003346FFF76DFF6D1C062DEFDB0D98FEF784
:10216000C2F881460B98FEF7BEF880460998FEF744
:10217000BAF807460798FEF7B6F806460598FEF740
:10218000B2F805460398FEF7AEF88DE880030146E5
:1021900033462A4610A0FFF765FE00250DF13C06E8
:1021A00054F83500FEF79FF8ADF8000006EB450047
:1021B000BDF800106D1CA0F80110062DF0DB0D22FB
:1021C0000FA90A48FFF7DEFBA9E700001400002072
:1021D000CDCCCC3D0AD7233C25642C25642C25642A
:1021E0002C25642C25642C25640A0000D0000020D6
:1021F000010202030405060708090A0B0C0D0E0F65
:102200001010010202030405060708090A0B0C0D51
:102210000E0F101000000000000000000102030477
:102220000607080900000000010203044C22000810
:102230000000002014000000A41E00086022000816
:10224000140000204C050000B41E0008010000002E
:10225000100000000000000000127A0000000000E2
:04000005080000ED02
:00000001FF
